{
  "contractName": "ERC20Stakeable",
  "abi": [
    {
      "inputs": [
        {
          "internalType": "string",
          "name": "_name",
          "type": "string"
        },
        {
          "internalType": "string",
          "name": "_symbol",
          "type": "string"
        }
      ],
      "stateMutability": "nonpayable",
      "type": "constructor"
    },
    {
      "anonymous": false,
      "inputs": [
        {
          "indexed": true,
          "internalType": "address",
          "name": "owner",
          "type": "address"
        },
        {
          "indexed": true,
          "internalType": "address",
          "name": "spender",
          "type": "address"
        },
        {
          "indexed": false,
          "internalType": "uint256",
          "name": "value",
          "type": "uint256"
        }
      ],
      "name": "Approval",
      "type": "event"
    },
    {
      "anonymous": false,
      "inputs": [
        {
          "indexed": true,
          "internalType": "address",
          "name": "from",
          "type": "address"
        },
        {
          "indexed": true,
          "internalType": "address",
          "name": "to",
          "type": "address"
        },
        {
          "indexed": false,
          "internalType": "uint256",
          "name": "value",
          "type": "uint256"
        }
      ],
      "name": "Transfer",
      "type": "event"
    },
    {
      "inputs": [
        {
          "internalType": "address",
          "name": "owner",
          "type": "address"
        },
        {
          "internalType": "address",
          "name": "spender",
          "type": "address"
        }
      ],
      "name": "allowance",
      "outputs": [
        {
          "internalType": "uint256",
          "name": "",
          "type": "uint256"
        }
      ],
      "stateMutability": "view",
      "type": "function"
    },
    {
      "inputs": [
        {
          "internalType": "address",
          "name": "spender",
          "type": "address"
        },
        {
          "internalType": "uint256",
          "name": "amount",
          "type": "uint256"
        }
      ],
      "name": "approve",
      "outputs": [
        {
          "internalType": "bool",
          "name": "",
          "type": "bool"
        }
      ],
      "stateMutability": "nonpayable",
      "type": "function"
    },
    {
      "inputs": [
        {
          "internalType": "address",
          "name": "account",
          "type": "address"
        }
      ],
      "name": "balanceOf",
      "outputs": [
        {
          "internalType": "uint256",
          "name": "",
          "type": "uint256"
        }
      ],
      "stateMutability": "view",
      "type": "function"
    },
    {
      "inputs": [
        {
          "internalType": "uint256",
          "name": "amount",
          "type": "uint256"
        }
      ],
      "name": "burn",
      "outputs": [],
      "stateMutability": "nonpayable",
      "type": "function"
    },
    {
      "inputs": [
        {
          "internalType": "address",
          "name": "account",
          "type": "address"
        },
        {
          "internalType": "uint256",
          "name": "amount",
          "type": "uint256"
        }
      ],
      "name": "burnFrom",
      "outputs": [],
      "stateMutability": "nonpayable",
      "type": "function"
    },
    {
      "inputs": [],
      "name": "compoundFreq",
      "outputs": [
        {
          "internalType": "uint256",
          "name": "",
          "type": "uint256"
        }
      ],
      "stateMutability": "view",
      "type": "function"
    },
    {
      "inputs": [],
      "name": "decimals",
      "outputs": [
        {
          "internalType": "uint8",
          "name": "",
          "type": "uint8"
        }
      ],
      "stateMutability": "view",
      "type": "function"
    },
    {
      "inputs": [
        {
          "internalType": "address",
          "name": "spender",
          "type": "address"
        },
        {
          "internalType": "uint256",
          "name": "subtractedValue",
          "type": "uint256"
        }
      ],
      "name": "decreaseAllowance",
      "outputs": [
        {
          "internalType": "bool",
          "name": "",
          "type": "bool"
        }
      ],
      "stateMutability": "nonpayable",
      "type": "function"
    },
    {
      "inputs": [
        {
          "internalType": "address",
          "name": "spender",
          "type": "address"
        },
        {
          "internalType": "uint256",
          "name": "addedValue",
          "type": "uint256"
        }
      ],
      "name": "increaseAllowance",
      "outputs": [
        {
          "internalType": "bool",
          "name": "",
          "type": "bool"
        }
      ],
      "stateMutability": "nonpayable",
      "type": "function"
    },
    {
      "inputs": [],
      "name": "minStake",
      "outputs": [
        {
          "internalType": "uint256",
          "name": "",
          "type": "uint256"
        }
      ],
      "stateMutability": "view",
      "type": "function"
    },
    {
      "inputs": [],
      "name": "name",
      "outputs": [
        {
          "internalType": "string",
          "name": "",
          "type": "string"
        }
      ],
      "stateMutability": "view",
      "type": "function"
    },
    {
      "inputs": [],
      "name": "rewardsPerHour",
      "outputs": [
        {
          "internalType": "uint256",
          "name": "",
          "type": "uint256"
        }
      ],
      "stateMutability": "view",
      "type": "function"
    },
    {
      "inputs": [],
      "name": "symbol",
      "outputs": [
        {
          "internalType": "string",
          "name": "",
          "type": "string"
        }
      ],
      "stateMutability": "view",
      "type": "function"
    },
    {
      "inputs": [],
      "name": "totalSupply",
      "outputs": [
        {
          "internalType": "uint256",
          "name": "",
          "type": "uint256"
        }
      ],
      "stateMutability": "view",
      "type": "function"
    },
    {
      "inputs": [
        {
          "internalType": "address",
          "name": "to",
          "type": "address"
        },
        {
          "internalType": "uint256",
          "name": "amount",
          "type": "uint256"
        }
      ],
      "name": "transfer",
      "outputs": [
        {
          "internalType": "bool",
          "name": "",
          "type": "bool"
        }
      ],
      "stateMutability": "nonpayable",
      "type": "function"
    },
    {
      "inputs": [
        {
          "internalType": "address",
          "name": "from",
          "type": "address"
        },
        {
          "internalType": "address",
          "name": "to",
          "type": "address"
        },
        {
          "internalType": "uint256",
          "name": "amount",
          "type": "uint256"
        }
      ],
      "name": "transferFrom",
      "outputs": [
        {
          "internalType": "bool",
          "name": "",
          "type": "bool"
        }
      ],
      "stateMutability": "nonpayable",
      "type": "function"
    },
    {
      "inputs": [
        {
          "internalType": "uint256",
          "name": "_amount",
          "type": "uint256"
        }
      ],
      "name": "deposit",
      "outputs": [],
      "stateMutability": "nonpayable",
      "type": "function"
    },
    {
      "inputs": [],
      "name": "stakeRewards",
      "outputs": [],
      "stateMutability": "nonpayable",
      "type": "function"
    },
    {
      "inputs": [],
      "name": "claimRewards",
      "outputs": [],
      "stateMutability": "nonpayable",
      "type": "function"
    },
    {
      "inputs": [
        {
          "internalType": "uint256",
          "name": "_amount",
          "type": "uint256"
        }
      ],
      "name": "withdraw",
      "outputs": [],
      "stateMutability": "nonpayable",
      "type": "function"
    },
    {
      "inputs": [],
      "name": "withdrawAll",
      "outputs": [],
      "stateMutability": "nonpayable",
      "type": "function"
    },
    {
      "inputs": [
        {
          "internalType": "address",
          "name": "_user",
          "type": "address"
        }
      ],
      "name": "getDepositInfo",
      "outputs": [
        {
          "internalType": "uint256",
          "name": "_stake",
          "type": "uint256"
        },
        {
          "internalType": "uint256",
          "name": "_rewards",
          "type": "uint256"
        }
      ],
      "stateMutability": "view",
      "type": "function"
    },
    {
      "inputs": [
        {
          "internalType": "address",
          "name": "_user",
          "type": "address"
        }
      ],
      "name": "compoundRewardsTimer",
      "outputs": [
        {
          "internalType": "uint256",
          "name": "_timer",
          "type": "uint256"
        }
      ],
      "stateMutability": "view",
      "type": "function"
    }
  ],
  "bytecode": "0x608060405261011d6006556200001a620000aa60201b60201c565b600a6200002891906200024d565b600a6200003691906200029e565b6007556138406008553480156200004c57600080fd5b50604051620033b0380380620033b083398181016040528101906200007291906200049c565b8181816003908162000085919062000762565b50806004908162000097919062000762565b5050506001600581905550505062000849565b60006012905090565b7f4e487b7100000000000000000000000000000000000000000000000000000000600052601160045260246000fd5b60008160011c9050919050565b6000808291508390505b60018511156200014157808604811115620001195762000118620000b3565b5b6001851615620001295780820291505b80810290506200013985620000e2565b9450620000f9565b94509492505050565b6000826200015c57600190506200022f565b816200016c57600090506200022f565b81600181146200018557600281146200019057620001c6565b60019150506200022f565b60ff841115620001a557620001a4620000b3565b5b8360020a915084821115620001bf57620001be620000b3565b5b506200022f565b5060208310610133831016604e8410600b8410161715620002005782820a905083811115620001fa57620001f9620000b3565b5b6200022f565b6200020f8484846001620000ef565b92509050818404811115620002295762000228620000b3565b5b81810290505b9392505050565b6000819050919050565b600060ff82169050919050565b60006200025a8262000236565b9150620002678362000240565b9250620002967fffffffffffffffffffffffffffffffffffffffffffffffffffffffffffffffff84846200014a565b905092915050565b6000620002ab8262000236565b9150620002b88362000236565b9250817fffffffffffffffffffffffffffffffffffffffffffffffffffffffffffffffff0483118215151615620002f457620002f3620000b3565b5b828202905092915050565b6000604051905090565b600080fd5b600080fd5b600080fd5b600080fd5b6000601f19601f8301169050919050565b7f4e487b7100000000000000000000000000000000000000000000000000000000600052604160045260246000fd5b62000368826200031d565b810181811067ffffffffffffffff821117156200038a57620003896200032e565b5b80604052505050565b60006200039f620002ff565b9050620003ad82826200035d565b919050565b600067ffffffffffffffff821115620003d057620003cf6200032e565b5b620003db826200031d565b9050602081019050919050565b60005b8381101562000408578082015181840152602081019050620003eb565b8381111562000418576000848401525b50505050565b6000620004356200042f84620003b2565b62000393565b90508281526020810184848401111562000454576200045362000318565b5b62000461848285620003e8565b509392505050565b600082601f83011262000481576200048062000313565b5b8151620004938482602086016200041e565b91505092915050565b60008060408385031215620004b657620004b562000309565b5b600083015167ffffffffffffffff811115620004d757620004d66200030e565b5b620004e58582860162000469565b925050602083015167ffffffffffffffff8111156200050957620005086200030e565b5b620005178582860162000469565b9150509250929050565b600081519050919050565b7f4e487b7100000000000000000000000000000000000000000000000000000000600052602260045260246000fd5b600060028204905060018216806200057457607f821691505b6020821081036200058a57620005896200052c565b5b50919050565b60008190508160005260206000209050919050565b60006020601f8301049050919050565b600082821b905092915050565b600060088302620005f47fffffffffffffffffffffffffffffffffffffffffffffffffffffffffffffffff82620005b5565b620006008683620005b5565b95508019841693508086168417925050509392505050565b6000819050919050565b6000620006436200063d620006378462000236565b62000618565b62000236565b9050919050565b6000819050919050565b6200065f8362000622565b620006776200066e826200064a565b848454620005c2565b825550505050565b600090565b6200068e6200067f565b6200069b81848462000654565b505050565b5b81811015620006c357620006b760008262000684565b600181019050620006a1565b5050565b601f8211156200071257620006dc8162000590565b620006e784620005a5565b81016020851015620006f7578190505b6200070f6200070685620005a5565b830182620006a0565b50505b505050565b600082821c905092915050565b6000620007376000198460080262000717565b1980831691505092915050565b600062000752838362000724565b9150826002028217905092915050565b6200076d8262000521565b67ffffffffffffffff8111156200078957620007886200032e565b5b6200079582546200055b565b620007a2828285620006c7565b600060209050601f831160018114620007da5760008415620007c5578287015190505b620007d1858262000744565b86555062000841565b601f198416620007ea8662000590565b60005b828110156200081457848901518255600182019150602085019450602081019050620007ed565b8683101562000834578489015162000830601f89168262000724565b8355505b6001600288020188555050505b505050505050565b612b5780620008596000396000f3fe608060405234801561001057600080fd5b506004361061014d5760003560e01c806342966c68116100c357806395d89b411161007c57806395d89b411461038f578063a457c2d7146103ad578063a9059cbb146103dd578063b6b55f251461040d578063cf9d0b5f14610429578063dd62ed3e146104335761014d565b806342966c68146102ce5780635287ce12146102ea57806370a082311461031b57806379cc67901461034b578063853828b6146103675780638e7271fa146103715761014d565b806323b872dd1161011557806323b872dd1461020c5780632e1a7d4d1461023c578063313ce56714610258578063372500ab14610276578063375b3c0a14610280578063395093511461029e5761014d565b806306fdde0314610152578063095ea7b31461017057806312e0a053146101a057806318160ddd146101d05780631a121d54146101ee575b600080fd5b61015a610463565b6040516101679190611dd8565b60405180910390f35b61018a60048036038101906101859190611e93565b6104f5565b6040516101979190611eee565b60405180910390f35b6101ba60048036038101906101b59190611f09565b610518565b6040516101c79190611f45565b60405180910390f35b6101d86105dc565b6040516101e59190611f45565b60405180910390f35b6101f66105e6565b6040516102039190611f45565b60405180910390f35b61022660048036038101906102219190611f60565b6105ec565b6040516102339190611eee565b60405180910390f35b61025660048036038101906102519190611fb3565b61061b565b005b6102606107f7565b60405161026d9190611ffc565b60405180910390f35b61027e610800565b005b61028861098e565b6040516102959190611f45565b60405180910390f35b6102b860048036038101906102b39190611e93565b610994565b6040516102c59190611eee565b60405180910390f35b6102e860048036038101906102e39190611fb3565b6109cb565b005b61030460048036038101906102ff9190611f09565b6109df565b604051610312929190612017565b60405180910390f35b61033560048036038101906103309190611f09565b610a84565b6040516103429190611f45565b60405180910390f35b61036560048036038101906103609190611e93565b610acc565b005b61036f610aec565b005b610379610d16565b6040516103869190611f45565b60405180910390f35b610397610d1c565b6040516103a49190611dd8565b60405180910390f35b6103c760048036038101906103c29190611e93565b610dae565b6040516103d49190611eee565b60405180910390f35b6103f760048036038101906103f29190611e93565b610e25565b6040516104049190611eee565b60405180910390f35b61042760048036038101906104229190611fb3565b610e48565b005b610431611167565b005b61044d60048036038101906104489190612040565b6113d1565b60405161045a9190611f45565b60405180910390f35b606060038054610472906120af565b80601f016020809104026020016040519081016040528092919081815260200182805461049e906120af565b80156104eb5780601f106104c0576101008083540402835291602001916104eb565b820191906000526020600020905b8154815290600101906020018083116104ce57829003601f168201915b5050505050905090565b600080610500611458565b905061050d818585611460565b600191505092915050565b600042600854600960008573ffffffffffffffffffffffffffffffffffffffff1673ffffffffffffffffffffffffffffffffffffffff1681526020019081526020016000206001015461056b919061210f565b1161057957600090506105d7565b42600854600960008573ffffffffffffffffffffffffffffffffffffffff1673ffffffffffffffffffffffffffffffffffffffff168152602001908152602001600020600101546105ca919061210f565b6105d49190612165565b90505b919050565b6000600254905090565b60085481565b6000806105f7611458565b9050610604858285611629565b61060f8585856116b5565b60019150509392505050565b600260055403610660576040517f08c379a0000000000000000000000000000000000000000000000000000000008152600401610657906121e5565b60405180910390fd5b600260058190555080600960003373ffffffffffffffffffffffffffffffffffffffff1673ffffffffffffffffffffffffffffffffffffffff1681526020019081526020016000206000015410156106ed576040517f08c379a00000000000000000000000000000000000000000000000000000000081526004016106e490612277565b60405180910390fd5b60006106f833611934565b905081600960003373ffffffffffffffffffffffffffffffffffffffff1673ffffffffffffffffffffffffffffffffffffffff168152602001908152602001600020600001600082825461074c9190612165565b9250508190555042600960003373ffffffffffffffffffffffffffffffffffffffff1673ffffffffffffffffffffffffffffffffffffffff1681526020019081526020016000206001018190555080600960003373ffffffffffffffffffffffffffffffffffffffff1673ffffffffffffffffffffffffffffffffffffffff168152602001908152602001600020600201819055506107eb3383611a00565b50600160058190555050565b60006012905090565b600260055403610845576040517f08c379a000000000000000000000000000000000000000000000000000000000815260040161083c906121e5565b60405180910390fd5b60026005819055506000600960003373ffffffffffffffffffffffffffffffffffffffff1673ffffffffffffffffffffffffffffffffffffffff1681526020019081526020016000206002015461089b33611934565b6108a5919061210f565b9050600081116108ea576040517f08c379a00000000000000000000000000000000000000000000000000000000081526004016108e1906122e3565b60405180910390fd5b6000600960003373ffffffffffffffffffffffffffffffffffffffff1673ffffffffffffffffffffffffffffffffffffffff1681526020019081526020016000206002018190555042600960003373ffffffffffffffffffffffffffffffffffffffff1673ffffffffffffffffffffffffffffffffffffffff168152602001908152602001600020600101819055506109833382611a00565b506001600581905550565b60075481565b60008061099f611458565b90506109c08185856109b185896113d1565b6109bb919061210f565b611460565b600191505092915050565b6109dc6109d6611458565b82611b5f565b50565b600080600960008473ffffffffffffffffffffffffffffffffffffffff1673ffffffffffffffffffffffffffffffffffffffff168152602001908152602001600020600001549150600960003373ffffffffffffffffffffffffffffffffffffffff1673ffffffffffffffffffffffffffffffffffffffff16815260200190815260200160002060020154610a7384611934565b610a7d919061210f565b9050915091565b60008060008373ffffffffffffffffffffffffffffffffffffffff1673ffffffffffffffffffffffffffffffffffffffff168152602001908152602001600020549050919050565b610ade82610ad8611458565b83611629565b610ae88282611b5f565b5050565b600260055403610b31576040517f08c379a0000000000000000000000000000000000000000000000000000000008152600401610b28906121e5565b60405180910390fd5b60026005819055506000600960003373ffffffffffffffffffffffffffffffffffffffff1673ffffffffffffffffffffffffffffffffffffffff1681526020019081526020016000206000015411610bbe576040517f08c379a0000000000000000000000000000000000000000000000000000000008152600401610bb59061234f565b60405180910390fd5b6000600960003373ffffffffffffffffffffffffffffffffffffffff1673ffffffffffffffffffffffffffffffffffffffff16815260200190815260200160002060020154610c0c33611934565b610c16919061210f565b90506000600960003373ffffffffffffffffffffffffffffffffffffffff1673ffffffffffffffffffffffffffffffffffffffff1681526020019081526020016000206000015490506000600960003373ffffffffffffffffffffffffffffffffffffffff1673ffffffffffffffffffffffffffffffffffffffff168152602001908152602001600020600001819055506000600960003373ffffffffffffffffffffffffffffffffffffffff1673ffffffffffffffffffffffffffffffffffffffff1681526020019081526020016000206001018190555060008183610cfd919061210f565b9050610d093382611a00565b5050506001600581905550565b60065481565b606060048054610d2b906120af565b80601f0160208091040260200160405190810160405280929190818152602001828054610d57906120af565b8015610da45780601f10610d7957610100808354040283529160200191610da4565b820191906000526020600020905b815481529060010190602001808311610d8757829003601f168201915b5050505050905090565b600080610db9611458565b90506000610dc782866113d1565b905083811015610e0c576040517f08c379a0000000000000000000000000000000000000000000000000000000008152600401610e03906123e1565b60405180910390fd5b610e198286868403611460565b60019250505092915050565b600080610e30611458565b9050610e3d8185856116b5565b600191505092915050565b600260055403610e8d576040517f08c379a0000000000000000000000000000000000000000000000000000000008152600401610e84906121e5565b60405180910390fd5b6002600581905550600754811015610eda576040517f08c379a0000000000000000000000000000000000000000000000000000000008152600401610ed190612473565b60405180910390fd5b80610ee433610a84565b1015610f25576040517f08c379a0000000000000000000000000000000000000000000000000000000008152600401610f1c906124df565b60405180910390fd5b6000600960003373ffffffffffffffffffffffffffffffffffffffff1673ffffffffffffffffffffffffffffffffffffffff168152602001908152602001600020600001540361104a5780600960003373ffffffffffffffffffffffffffffffffffffffff1673ffffffffffffffffffffffffffffffffffffffff1681526020019081526020016000206000018190555042600960003373ffffffffffffffffffffffffffffffffffffffff1673ffffffffffffffffffffffffffffffffffffffff168152602001908152602001600020600101819055506000600960003373ffffffffffffffffffffffffffffffffffffffff1673ffffffffffffffffffffffffffffffffffffffff16815260200190815260200160002060020181905550611152565b600061105533611934565b905080600960003373ffffffffffffffffffffffffffffffffffffffff1673ffffffffffffffffffffffffffffffffffffffff16815260200190815260200160002060020160008282546110a9919061210f565b9250508190555081600960003373ffffffffffffffffffffffffffffffffffffffff1673ffffffffffffffffffffffffffffffffffffffff1681526020019081526020016000206000016000828254611102919061210f565b9250508190555042600960003373ffffffffffffffffffffffffffffffffffffffff1673ffffffffffffffffffffffffffffffffffffffff16815260200190815260200160002060010181905550505b61115c3382611b5f565b600160058190555050565b6002600554036111ac576040517f08c379a00000000000000000000000000000000000000000000000000000000081526004016111a3906121e5565b60405180910390fd5b60026005819055506000600960003373ffffffffffffffffffffffffffffffffffffffff1673ffffffffffffffffffffffffffffffffffffffff1681526020019081526020016000206000015411611239576040517f08c379a00000000000000000000000000000000000000000000000000000000081526004016112309061234f565b60405180910390fd5b600061124433610518565b14611284576040517f08c379a000000000000000000000000000000000000000000000000000000000815260040161127b90612571565b60405180910390fd5b6000600960003373ffffffffffffffffffffffffffffffffffffffff1673ffffffffffffffffffffffffffffffffffffffff168152602001908152602001600020600201546112d233611934565b6112dc919061210f565b90506000600960003373ffffffffffffffffffffffffffffffffffffffff1673ffffffffffffffffffffffffffffffffffffffff1681526020019081526020016000206002018190555080600960003373ffffffffffffffffffffffffffffffffffffffff1673ffffffffffffffffffffffffffffffffffffffff1681526020019081526020016000206000016000828254611378919061210f565b9250508190555042600960003373ffffffffffffffffffffffffffffffffffffffff1673ffffffffffffffffffffffffffffffffffffffff16815260200190815260200160002060010181905550506001600581905550565b6000600160008473ffffffffffffffffffffffffffffffffffffffff1673ffffffffffffffffffffffffffffffffffffffff16815260200190815260200160002060008373ffffffffffffffffffffffffffffffffffffffff1673ffffffffffffffffffffffffffffffffffffffff16815260200190815260200160002054905092915050565b600033905090565b600073ffffffffffffffffffffffffffffffffffffffff168373ffffffffffffffffffffffffffffffffffffffff16036114cf576040517f08c379a00000000000000000000000000000000000000000000000000000000081526004016114c690612603565b60405180910390fd5b600073ffffffffffffffffffffffffffffffffffffffff168273ffffffffffffffffffffffffffffffffffffffff160361153e576040517f08c379a000000000000000000000000000000000000000000000000000000000815260040161153590612695565b60405180910390fd5b80600160008573ffffffffffffffffffffffffffffffffffffffff1673ffffffffffffffffffffffffffffffffffffffff16815260200190815260200160002060008473ffffffffffffffffffffffffffffffffffffffff1673ffffffffffffffffffffffffffffffffffffffff168152602001908152602001600020819055508173ffffffffffffffffffffffffffffffffffffffff168373ffffffffffffffffffffffffffffffffffffffff167f8c5be1e5ebec7d5bd14f71427d1e84f3dd0314c0f7b2291e5b200ac8c7c3b9258360405161161c9190611f45565b60405180910390a3505050565b600061163584846113d1565b90507fffffffffffffffffffffffffffffffffffffffffffffffffffffffffffffffff81146116af57818110156116a1576040517f08c379a000000000000000000000000000000000000000000000000000000000815260040161169890612701565b60405180910390fd5b6116ae8484848403611460565b5b50505050565b600073ffffffffffffffffffffffffffffffffffffffff168373ffffffffffffffffffffffffffffffffffffffff1603611724576040517f08c379a000000000000000000000000000000000000000000000000000000000815260040161171b90612793565b60405180910390fd5b600073ffffffffffffffffffffffffffffffffffffffff168273ffffffffffffffffffffffffffffffffffffffff1603611793576040517f08c379a000000000000000000000000000000000000000000000000000000000815260040161178a90612825565b60405180910390fd5b61179e838383611d35565b60008060008573ffffffffffffffffffffffffffffffffffffffff1673ffffffffffffffffffffffffffffffffffffffff16815260200190815260200160002054905081811015611824576040517f08c379a000000000000000000000000000000000000000000000000000000000815260040161181b906128b7565b60405180910390fd5b8181036000808673ffffffffffffffffffffffffffffffffffffffff1673ffffffffffffffffffffffffffffffffffffffff16815260200190815260200160002081905550816000808573ffffffffffffffffffffffffffffffffffffffff1673ffffffffffffffffffffffffffffffffffffffff16815260200190815260200160002060008282546118b7919061210f565b925050819055508273ffffffffffffffffffffffffffffffffffffffff168473ffffffffffffffffffffffffffffffffffffffff167fddf252ad1be2c89b69c2b068fc378daa952ba7f163c4a11628f55a4df523b3ef8460405161191b9190611f45565b60405180910390a361192e848484611d3a565b50505050565b600062989680610e10600654600960008673ffffffffffffffffffffffffffffffffffffffff1673ffffffffffffffffffffffffffffffffffffffff16815260200190815260200160002060000154600960008773ffffffffffffffffffffffffffffffffffffffff1673ffffffffffffffffffffffffffffffffffffffff16815260200190815260200160002060010154426119d19190612165565b6119db91906128d7565b6119e591906128d7565b6119ef9190612960565b6119f99190612960565b9050919050565b600073ffffffffffffffffffffffffffffffffffffffff168273ffffffffffffffffffffffffffffffffffffffff1603611a6f576040517f08c379a0000000000000000000000000000000000000000000000000000000008152600401611a66906129dd565b60405180910390fd5b611a7b60008383611d35565b8060026000828254611a8d919061210f565b92505081905550806000808473ffffffffffffffffffffffffffffffffffffffff1673ffffffffffffffffffffffffffffffffffffffff1681526020019081526020016000206000828254611ae2919061210f565b925050819055508173ffffffffffffffffffffffffffffffffffffffff16600073ffffffffffffffffffffffffffffffffffffffff167fddf252ad1be2c89b69c2b068fc378daa952ba7f163c4a11628f55a4df523b3ef83604051611b479190611f45565b60405180910390a3611b5b60008383611d3a565b5050565b600073ffffffffffffffffffffffffffffffffffffffff168273ffffffffffffffffffffffffffffffffffffffff1603611bce576040517f08c379a0000000000000000000000000000000000000000000000000000000008152600401611bc590612a6f565b60405180910390fd5b611bda82600083611d35565b60008060008473ffffffffffffffffffffffffffffffffffffffff1673ffffffffffffffffffffffffffffffffffffffff16815260200190815260200160002054905081811015611c60576040517f08c379a0000000000000000000000000000000000000000000000000000000008152600401611c5790612b01565b60405180910390fd5b8181036000808573ffffffffffffffffffffffffffffffffffffffff1673ffffffffffffffffffffffffffffffffffffffff168152602001908152602001600020819055508160026000828254611cb79190612165565b92505081905550600073ffffffffffffffffffffffffffffffffffffffff168373ffffffffffffffffffffffffffffffffffffffff167fddf252ad1be2c89b69c2b068fc378daa952ba7f163c4a11628f55a4df523b3ef84604051611d1c9190611f45565b60405180910390a3611d3083600084611d3a565b505050565b505050565b505050565b600081519050919050565b600082825260208201905092915050565b60005b83811015611d79578082015181840152602081019050611d5e565b83811115611d88576000848401525b50505050565b6000601f19601f8301169050919050565b6000611daa82611d3f565b611db48185611d4a565b9350611dc4818560208601611d5b565b611dcd81611d8e565b840191505092915050565b60006020820190508181036000830152611df28184611d9f565b905092915050565b600080fd5b600073ffffffffffffffffffffffffffffffffffffffff82169050919050565b6000611e2a82611dff565b9050919050565b611e3a81611e1f565b8114611e4557600080fd5b50565b600081359050611e5781611e31565b92915050565b6000819050919050565b611e7081611e5d565b8114611e7b57600080fd5b50565b600081359050611e8d81611e67565b92915050565b60008060408385031215611eaa57611ea9611dfa565b5b6000611eb885828601611e48565b9250506020611ec985828601611e7e565b9150509250929050565b60008115159050919050565b611ee881611ed3565b82525050565b6000602082019050611f036000830184611edf565b92915050565b600060208284031215611f1f57611f1e611dfa565b5b6000611f2d84828501611e48565b91505092915050565b611f3f81611e5d565b82525050565b6000602082019050611f5a6000830184611f36565b92915050565b600080600060608486031215611f7957611f78611dfa565b5b6000611f8786828701611e48565b9350506020611f9886828701611e48565b9250506040611fa986828701611e7e565b9150509250925092565b600060208284031215611fc957611fc8611dfa565b5b6000611fd784828501611e7e565b91505092915050565b600060ff82169050919050565b611ff681611fe0565b82525050565b60006020820190506120116000830184611fed565b92915050565b600060408201905061202c6000830185611f36565b6120396020830184611f36565b9392505050565b6000806040838503121561205757612056611dfa565b5b600061206585828601611e48565b925050602061207685828601611e48565b9150509250929050565b7f4e487b7100000000000000000000000000000000000000000000000000000000600052602260045260246000fd5b600060028204905060018216806120c757607f821691505b6020821081036120da576120d9612080565b5b50919050565b7f4e487b7100000000000000000000000000000000000000000000000000000000600052601160045260246000fd5b600061211a82611e5d565b915061212583611e5d565b9250827fffffffffffffffffffffffffffffffffffffffffffffffffffffffffffffffff0382111561215a576121596120e0565b5b828201905092915050565b600061217082611e5d565b915061217b83611e5d565b92508282101561218e5761218d6120e0565b5b828203905092915050565b7f5265656e7472616e637947756172643a207265656e7472616e742063616c6c00600082015250565b60006121cf601f83611d4a565b91506121da82612199565b602082019050919050565b600060208201905081810360008301526121fe816121c2565b9050919050565b7f43616e2774207769746864726177206d6f7265207468616e20796f752068617660008201527f6500000000000000000000000000000000000000000000000000000000000000602082015250565b6000612261602183611d4a565b915061226c82612205565b604082019050919050565b6000602082019050818103600083015261229081612254565b9050919050565b7f596f752068617665206e6f207265776172647300000000000000000000000000600082015250565b60006122cd601383611d4a565b91506122d882612297565b602082019050919050565b600060208201905081810360008301526122fc816122c0565b9050919050565b7f596f752068617665206e6f206465706f73697400000000000000000000000000600082015250565b6000612339601383611d4a565b915061234482612303565b602082019050919050565b600060208201905081810360008301526123688161232c565b9050919050565b7f45524332303a2064656372656173656420616c6c6f77616e63652062656c6f7760008201527f207a65726f000000000000000000000000000000000000000000000000000000602082015250565b60006123cb602583611d4a565b91506123d68261236f565b604082019050919050565b600060208201905081810360008301526123fa816123be565b9050919050565b7f416d6f756e7420736d616c6c6572207468616e206d696e696d696d756d20646560008201527f706f736974000000000000000000000000000000000000000000000000000000602082015250565b600061245d602583611d4a565b915061246882612401565b604082019050919050565b6000602082019050818103600083015261248c81612450565b9050919050565b7f43616e2774207374616b65206d6f7265207468616e20796f75206f776e000000600082015250565b60006124c9601d83611d4a565b91506124d482612493565b602082019050919050565b600060208201905081810360008301526124f8816124bc565b9050919050565b7f547269656420746f20636f6d706f756e642072657761727320746f6f20736f6f60008201527f6e00000000000000000000000000000000000000000000000000000000000000602082015250565b600061255b602183611d4a565b9150612566826124ff565b604082019050919050565b6000602082019050818103600083015261258a8161254e565b9050919050565b7f45524332303a20617070726f76652066726f6d20746865207a65726f2061646460008201527f7265737300000000000000000000000000000000000000000000000000000000602082015250565b60006125ed602483611d4a565b91506125f882612591565b604082019050919050565b6000602082019050818103600083015261261c816125e0565b9050919050565b7f45524332303a20617070726f766520746f20746865207a65726f20616464726560008201527f7373000000000000000000000000000000000000000000000000000000000000602082015250565b600061267f602283611d4a565b915061268a82612623565b604082019050919050565b600060208201905081810360008301526126ae81612672565b9050919050565b7f45524332303a20696e73756666696369656e7420616c6c6f77616e6365000000600082015250565b60006126eb601d83611d4a565b91506126f6826126b5565b602082019050919050565b6000602082019050818103600083015261271a816126de565b9050919050565b7f45524332303a207472616e736665722066726f6d20746865207a65726f20616460008201527f6472657373000000000000000000000000000000000000000000000000000000602082015250565b600061277d602583611d4a565b915061278882612721565b604082019050919050565b600060208201905081810360008301526127ac81612770565b9050919050565b7f45524332303a207472616e7366657220746f20746865207a65726f206164647260008201527f6573730000000000000000000000000000000000000000000000000000000000602082015250565b600061280f602383611d4a565b915061281a826127b3565b604082019050919050565b6000602082019050818103600083015261283e81612802565b9050919050565b7f45524332303a207472616e7366657220616d6f756e742065786365656473206260008201527f616c616e63650000000000000000000000000000000000000000000000000000602082015250565b60006128a1602683611d4a565b91506128ac82612845565b604082019050919050565b600060208201905081810360008301526128d081612894565b9050919050565b60006128e282611e5d565b91506128ed83611e5d565b9250817fffffffffffffffffffffffffffffffffffffffffffffffffffffffffffffffff0483118215151615612926576129256120e0565b5b828202905092915050565b7f4e487b7100000000000000000000000000000000000000000000000000000000600052601260045260246000fd5b600061296b82611e5d565b915061297683611e5d565b92508261298657612985612931565b5b828204905092915050565b7f45524332303a206d696e7420746f20746865207a65726f206164647265737300600082015250565b60006129c7601f83611d4a565b91506129d282612991565b602082019050919050565b600060208201905081810360008301526129f6816129ba565b9050919050565b7f45524332303a206275726e2066726f6d20746865207a65726f2061646472657360008201527f7300000000000000000000000000000000000000000000000000000000000000602082015250565b6000612a59602183611d4a565b9150612a64826129fd565b604082019050919050565b60006020820190508181036000830152612a8881612a4c565b9050919050565b7f45524332303a206275726e20616d6f756e7420657863656564732062616c616e60008201527f6365000000000000000000000000000000000000000000000000000000000000602082015250565b6000612aeb602283611d4a565b9150612af682612a8f565b604082019050919050565b60006020820190508181036000830152612b1a81612ade565b905091905056fea2646970667358221220027ae29fa7576ba2dc6365bad4371321bd13f390fc2d457f50de09a91d5fafeb64736f6c634300080f0033",
  "immutableReferences": {},
  "source": "pragma solidity 0.8.15;\r\nimport \"@openzeppelin/contracts/token/ERC20/ERC20.sol\";\r\nimport \"@openzeppelin/contracts/token/ERC20/extensions/ERC20Burnable.sol\";\r\nimport \"@openzeppelin/contracts/security/ReentrancyGuard.sol\";\r\n\r\ncontract ERC20Stakeable is ERC20, ERC20Burnable, ReentrancyGuard {\r\n    // Staker info\r\n    struct Staker {\r\n        // The deposited tokens of the Staker\r\n        uint256 deposited;\r\n        // Last time of details update for Deposit\r\n        uint256 timeOfLastUpdate;\r\n        // Calculated, but unclaimed rewards. These are calculated each time\r\n        // a user writes to the contract.\r\n        uint256 unclaimedRewards;\r\n    }\r\n\r\n    // Rewards per hour. A fraction calculated as x/10.000.000 to get the percentage\r\n    uint256 public rewardsPerHour = 285; // 0.00285%/h or 25% APR\r\n\r\n    // Minimum amount to stake\r\n    uint256 public minStake = 10 * 10**decimals();\r\n\r\n    // Compounding frequency limit in seconds\r\n    uint256 public compoundFreq = 14400; //4 hours\r\n\r\n    // Mapping of address to Staker info\r\n    mapping(address => Staker) internal stakers;\r\n\r\n    // Constructor function\r\n    constructor(string memory _name, string memory _symbol)\r\n        ERC20(_name, _symbol)\r\n    {}\r\n\r\n    // If address has no Staker struct, initiate one. If address already was a stake,\r\n    // calculate the rewards and add them to unclaimedRewards, reset the last time of\r\n    // deposit and then add _amount to the already deposited amount.\r\n    // Burns the amount staked.\r\n    function deposit(uint256 _amount) external nonReentrant {\r\n        require(_amount >= minStake, \"Amount smaller than minimimum deposit\");\r\n        require(\r\n            balanceOf(msg.sender) >= _amount,\r\n            \"Can't stake more than you own\"\r\n        );\r\n        if (stakers[msg.sender].deposited == 0) {\r\n            stakers[msg.sender].deposited = _amount;\r\n            stakers[msg.sender].timeOfLastUpdate = block.timestamp;\r\n            stakers[msg.sender].unclaimedRewards = 0;\r\n        } else {\r\n            uint256 rewards = calculateRewards(msg.sender);\r\n            stakers[msg.sender].unclaimedRewards += rewards;\r\n            stakers[msg.sender].deposited += _amount;\r\n            stakers[msg.sender].timeOfLastUpdate = block.timestamp;\r\n        }\r\n        _burn(msg.sender, _amount);\r\n    }\r\n\r\n    // Compound the rewards and reset the last time of update for Deposit info\r\n    function stakeRewards() external nonReentrant {\r\n        require(stakers[msg.sender].deposited > 0, \"You have no deposit\");\r\n        require(\r\n            compoundRewardsTimer(msg.sender) == 0,\r\n            \"Tried to compound rewars too soon\"\r\n        );\r\n        uint256 rewards = calculateRewards(msg.sender) +\r\n            stakers[msg.sender].unclaimedRewards;\r\n        stakers[msg.sender].unclaimedRewards = 0;\r\n        stakers[msg.sender].deposited += rewards;\r\n        stakers[msg.sender].timeOfLastUpdate = block.timestamp;\r\n    }\r\n\r\n    // Mints rewards for msg.sender\r\n    function claimRewards() external nonReentrant {\r\n        uint256 rewards = calculateRewards(msg.sender) +\r\n            stakers[msg.sender].unclaimedRewards;\r\n        require(rewards > 0, \"You have no rewards\");\r\n        stakers[msg.sender].unclaimedRewards = 0;\r\n        stakers[msg.sender].timeOfLastUpdate = block.timestamp;\r\n        _mint(msg.sender, rewards);\r\n    }\r\n\r\n    // Withdraw specified amount of staked tokens\r\n    function withdraw(uint256 _amount) external nonReentrant {\r\n        require(\r\n            stakers[msg.sender].deposited >= _amount,\r\n            \"Can't withdraw more than you have\"\r\n        );\r\n        uint256 _rewards = calculateRewards(msg.sender);\r\n        stakers[msg.sender].deposited -= _amount;\r\n        stakers[msg.sender].timeOfLastUpdate = block.timestamp;\r\n        stakers[msg.sender].unclaimedRewards = _rewards;\r\n        _mint(msg.sender, _amount);\r\n    }\r\n\r\n    // Withdraw all stake and rewards and mints them to the msg.sender\r\n    function withdrawAll() external nonReentrant {\r\n        require(stakers[msg.sender].deposited > 0, \"You have no deposit\");\r\n        uint256 _rewards = calculateRewards(msg.sender) +\r\n            stakers[msg.sender].unclaimedRewards;\r\n        uint256 _deposit = stakers[msg.sender].deposited;\r\n        stakers[msg.sender].deposited = 0;\r\n        stakers[msg.sender].timeOfLastUpdate = 0;\r\n        uint256 _amount = _rewards + _deposit;\r\n        _mint(msg.sender, _amount);\r\n    }\r\n\r\n    // Function useful for fron-end that returns user stake and rewards by address\r\n    function getDepositInfo(address _user)\r\n        public\r\n        view\r\n        returns (uint256 _stake, uint256 _rewards)\r\n    {\r\n        _stake = stakers[_user].deposited;\r\n        _rewards =\r\n            calculateRewards(_user) +\r\n            stakers[msg.sender].unclaimedRewards;\r\n        return (_stake, _rewards);\r\n    }\r\n\r\n    // Utility function that returns the timer for restaking rewards\r\n    function compoundRewardsTimer(address _user)\r\n        public\r\n        view\r\n        returns (uint256 _timer)\r\n    {\r\n        if (stakers[_user].timeOfLastUpdate + compoundFreq <= block.timestamp) {\r\n            return 0;\r\n        } else {\r\n            return\r\n                (stakers[_user].timeOfLastUpdate + compoundFreq) -\r\n                block.timestamp;\r\n        }\r\n    }\r\n\r\n    // Calculate the rewards since the last update on Deposit info\r\n    function calculateRewards(address _staker)\r\n        internal\r\n        view\r\n        returns (uint256 rewards)\r\n    {\r\n        return (((((block.timestamp - stakers[_staker].timeOfLastUpdate) *\r\n            stakers[_staker].deposited) * rewardsPerHour) / 3600) / 10000000);\r\n    }\r\n}",
  "sourcePath": "C:\\Users\\HP\\Bankdapp\\contracts\\stakingdapp.sol",
  "compiler": {
    "name": "solc",
    "version": "0.8.15+commit.e14f2714.Emscripten.clang"
  },
  "schemaVersion": "3.4.8",
  "updatedAt": "2022-07-29T16:01:45.264Z",
  "devdoc": {
    "kind": "dev",
    "methods": {
      "allowance(address,address)": {
        "details": "See {IERC20-allowance}."
      },
      "approve(address,uint256)": {
        "details": "See {IERC20-approve}. NOTE: If `amount` is the maximum `uint256`, the allowance is not updated on `transferFrom`. This is semantically equivalent to an infinite approval. Requirements: - `spender` cannot be the zero address."
      },
      "balanceOf(address)": {
        "details": "See {IERC20-balanceOf}."
      },
      "burn(uint256)": {
        "details": "Destroys `amount` tokens from the caller. See {ERC20-_burn}."
      },
      "burnFrom(address,uint256)": {
        "details": "Destroys `amount` tokens from `account`, deducting from the caller's allowance. See {ERC20-_burn} and {ERC20-allowance}. Requirements: - the caller must have allowance for ``accounts``'s tokens of at least `amount`."
      },
      "decimals()": {
        "details": "Returns the number of decimals used to get its user representation. For example, if `decimals` equals `2`, a balance of `505` tokens should be displayed to a user as `5.05` (`505 / 10 ** 2`). Tokens usually opt for a value of 18, imitating the relationship between Ether and Wei. This is the value {ERC20} uses, unless this function is overridden; NOTE: This information is only used for _display_ purposes: it in no way affects any of the arithmetic of the contract, including {IERC20-balanceOf} and {IERC20-transfer}."
      },
      "decreaseAllowance(address,uint256)": {
        "details": "Atomically decreases the allowance granted to `spender` by the caller. This is an alternative to {approve} that can be used as a mitigation for problems described in {IERC20-approve}. Emits an {Approval} event indicating the updated allowance. Requirements: - `spender` cannot be the zero address. - `spender` must have allowance for the caller of at least `subtractedValue`."
      },
      "increaseAllowance(address,uint256)": {
        "details": "Atomically increases the allowance granted to `spender` by the caller. This is an alternative to {approve} that can be used as a mitigation for problems described in {IERC20-approve}. Emits an {Approval} event indicating the updated allowance. Requirements: - `spender` cannot be the zero address."
      },
      "name()": {
        "details": "Returns the name of the token."
      },
      "symbol()": {
        "details": "Returns the symbol of the token, usually a shorter version of the name."
      },
      "totalSupply()": {
        "details": "See {IERC20-totalSupply}."
      },
      "transfer(address,uint256)": {
        "details": "See {IERC20-transfer}. Requirements: - `to` cannot be the zero address. - the caller must have a balance of at least `amount`."
      },
      "transferFrom(address,address,uint256)": {
        "details": "See {IERC20-transferFrom}. Emits an {Approval} event indicating the updated allowance. This is not required by the EIP. See the note at the beginning of {ERC20}. NOTE: Does not update the allowance if the current allowance is the maximum `uint256`. Requirements: - `from` and `to` cannot be the zero address. - `from` must have a balance of at least `amount`. - the caller must have allowance for ``from``'s tokens of at least `amount`."
      }
    },
    "version": 1
  },
  "userdoc": {
    "kind": "user",
    "methods": {},
    "version": 1
  }
}