{
  "contractName": "Stakingdapp",
  "abi": [
    {
      "inputs": [
        {
          "internalType": "address",
          "name": "stakingToken",
          "type": "address"
        },
        {
          "internalType": "address",
          "name": "rewardsToken",
          "type": "address"
        }
      ],
      "stateMutability": "nonpayable",
      "type": "constructor"
    },
    {
      "inputs": [],
      "name": "NeedsMoreThanZero",
      "type": "error"
    },
    {
      "inputs": [],
      "name": "TransferFailed",
      "type": "error"
    },
    {
      "anonymous": false,
      "inputs": [
        {
          "indexed": true,
          "internalType": "address",
          "name": "user",
          "type": "address"
        },
        {
          "indexed": true,
          "internalType": "uint256",
          "name": "amount",
          "type": "uint256"
        }
      ],
      "name": "RewardsClaimed",
      "type": "event"
    },
    {
      "anonymous": false,
      "inputs": [
        {
          "indexed": true,
          "internalType": "address",
          "name": "user",
          "type": "address"
        },
        {
          "indexed": true,
          "internalType": "uint256",
          "name": "amount",
          "type": "uint256"
        }
      ],
      "name": "Staked",
      "type": "event"
    },
    {
      "anonymous": false,
      "inputs": [
        {
          "indexed": true,
          "internalType": "address",
          "name": "user",
          "type": "address"
        },
        {
          "indexed": true,
          "internalType": "uint256",
          "name": "amount",
          "type": "uint256"
        }
      ],
      "name": "WithdrewStake",
      "type": "event"
    },
    {
      "inputs": [],
      "name": "REWARD_RATE",
      "outputs": [
        {
          "internalType": "uint256",
          "name": "",
          "type": "uint256"
        }
      ],
      "stateMutability": "view",
      "type": "function"
    },
    {
      "inputs": [
        {
          "internalType": "address",
          "name": "",
          "type": "address"
        }
      ],
      "name": "s_balances",
      "outputs": [
        {
          "internalType": "uint256",
          "name": "",
          "type": "uint256"
        }
      ],
      "stateMutability": "view",
      "type": "function"
    },
    {
      "inputs": [],
      "name": "s_lastUpdateTime",
      "outputs": [
        {
          "internalType": "uint256",
          "name": "",
          "type": "uint256"
        }
      ],
      "stateMutability": "view",
      "type": "function"
    },
    {
      "inputs": [],
      "name": "s_rewardPerTokenStored",
      "outputs": [
        {
          "internalType": "uint256",
          "name": "",
          "type": "uint256"
        }
      ],
      "stateMutability": "view",
      "type": "function"
    },
    {
      "inputs": [
        {
          "internalType": "address",
          "name": "",
          "type": "address"
        }
      ],
      "name": "s_rewards",
      "outputs": [
        {
          "internalType": "uint256",
          "name": "",
          "type": "uint256"
        }
      ],
      "stateMutability": "view",
      "type": "function"
    },
    {
      "inputs": [],
      "name": "s_rewardsToken",
      "outputs": [
        {
          "internalType": "contract IERC20",
          "name": "",
          "type": "address"
        }
      ],
      "stateMutability": "view",
      "type": "function"
    },
    {
      "inputs": [],
      "name": "s_stakingToken",
      "outputs": [
        {
          "internalType": "contract IERC20",
          "name": "",
          "type": "address"
        }
      ],
      "stateMutability": "view",
      "type": "function"
    },
    {
      "inputs": [
        {
          "internalType": "address",
          "name": "",
          "type": "address"
        }
      ],
      "name": "s_userRewardPerTokenPaid",
      "outputs": [
        {
          "internalType": "uint256",
          "name": "",
          "type": "uint256"
        }
      ],
      "stateMutability": "view",
      "type": "function"
    },
    {
      "inputs": [],
      "name": "rewardPerToken",
      "outputs": [
        {
          "internalType": "uint256",
          "name": "",
          "type": "uint256"
        }
      ],
      "stateMutability": "view",
      "type": "function"
    },
    {
      "inputs": [
        {
          "internalType": "address",
          "name": "account",
          "type": "address"
        }
      ],
      "name": "earned",
      "outputs": [
        {
          "internalType": "uint256",
          "name": "",
          "type": "uint256"
        }
      ],
      "stateMutability": "view",
      "type": "function"
    },
    {
      "inputs": [
        {
          "internalType": "uint256",
          "name": "amount",
          "type": "uint256"
        }
      ],
      "name": "stake",
      "outputs": [],
      "stateMutability": "nonpayable",
      "type": "function"
    },
    {
      "inputs": [
        {
          "internalType": "uint256",
          "name": "amount",
          "type": "uint256"
        }
      ],
      "name": "withdraw",
      "outputs": [],
      "stateMutability": "nonpayable",
      "type": "function"
    },
    {
      "inputs": [],
      "name": "claimReward",
      "outputs": [],
      "stateMutability": "nonpayable",
      "type": "function"
    }
  ],
  "bytecode": "0x60806040523480156200001157600080fd5b50604051620012b5380380620012b5833981810160405281019062000037919062000133565b600160008190555081600260006101000a81548173ffffffffffffffffffffffffffffffffffffffff021916908373ffffffffffffffffffffffffffffffffffffffff16021790555080600160006101000a81548173ffffffffffffffffffffffffffffffffffffffff021916908373ffffffffffffffffffffffffffffffffffffffff16021790555050506200017a565b600080fd5b600073ffffffffffffffffffffffffffffffffffffffff82169050919050565b6000620000fb82620000ce565b9050919050565b6200010d81620000ee565b81146200011957600080fd5b50565b6000815190506200012d8162000102565b92915050565b600080604083850312156200014d576200014c620000c9565b5b60006200015d858286016200011c565b925050602062000170858286016200011c565b9150509250929050565b61112b806200018a6000396000f3fe608060405234801561001057600080fd5b50600436106100ce5760003560e01c8063a694fc3a1161008c578063b88a802f11610066578063b88a802f14610201578063bea081511461020b578063cd3daf9d1461023b578063f245ace414610259576100ce565b8063a694fc3a14610197578063ab32eb69146101b3578063adca9b72146101e3576100ce565b80628cc262146100d35780630bd21c56146101035780632e1a7d4d14610121578063304ac91b1461013d5780635997bb371461015b5780636aa0838f14610179575b600080fd5b6100ed60048036038101906100e89190610cfd565b610289565b6040516100fa9190610d43565b60405180910390f35b61010b61038b565b6040516101189190610dbd565b60405180910390f35b61013b60048036038101906101369190610e04565b6103b1565b005b610145610641565b6040516101529190610d43565b60405180910390f35b610163610647565b6040516101709190610d43565b60405180910390f35b61018161064c565b60405161018e9190610d43565b60405180910390f35b6101b160048036038101906101ac9190610e04565b610652565b005b6101cd60048036038101906101c89190610cfd565b610920565b6040516101da9190610d43565b60405180910390f35b6101eb610938565b6040516101f89190610dbd565b60405180910390f35b61020961095e565b005b61022560048036038101906102209190610cfd565b610c08565b6040516102329190610d43565b60405180910390f35b610243610c20565b6040516102509190610d43565b60405180910390f35b610273600480360381019061026e9190610cfd565b610c82565b6040516102809190610d43565b60405180910390f35b6000600660008373ffffffffffffffffffffffffffffffffffffffff1673ffffffffffffffffffffffffffffffffffffffff16815260200190815260200160002054670de0b6b3a7640000600560008573ffffffffffffffffffffffffffffffffffffffff1673ffffffffffffffffffffffffffffffffffffffff1681526020019081526020016000205461031c610c20565b6103269190610e60565b600860008673ffffffffffffffffffffffffffffffffffffffff1673ffffffffffffffffffffffffffffffffffffffff168152602001908152602001600020546103709190610e94565b61037a9190610f1d565b6103849190610f4e565b9050919050565b600160009054906101000a900473ffffffffffffffffffffffffffffffffffffffff1681565b336103ba610c20565b600481905550426003819055506103d081610289565b600660008373ffffffffffffffffffffffffffffffffffffffff1673ffffffffffffffffffffffffffffffffffffffff16815260200190815260200160002081905550600454600560008373ffffffffffffffffffffffffffffffffffffffff1673ffffffffffffffffffffffffffffffffffffffff1681526020019081526020016000208190555060026000540361049e576040517f08c379a000000000000000000000000000000000000000000000000000000000815260040161049590611001565b60405180910390fd5b600260008190555081600760008282546104b89190610e60565b9250508190555081600860003373ffffffffffffffffffffffffffffffffffffffff1673ffffffffffffffffffffffffffffffffffffffff168152602001908152602001600020600082825461050e9190610e60565b92505081905550813373ffffffffffffffffffffffffffffffffffffffff167f4cb6da433ea55f6e302b7bdbfeed740816a42301cde7f5bac5dff2b34037637460405160405180910390a36000600260009054906101000a900473ffffffffffffffffffffffffffffffffffffffff1673ffffffffffffffffffffffffffffffffffffffff1663a9059cbb33856040518363ffffffff1660e01b81526004016105b8929190611030565b6020604051808303816000875af11580156105d7573d6000803e3d6000fd5b505050506040513d601f19601f820116820180604052508101906105fb9190611091565b905080610634576040517f90b8ec1800000000000000000000000000000000000000000000000000000000815260040160405180910390fd5b5060016000819055505050565b60045481565b606481565b60035481565b3361065b610c20565b6004819055504260038190555061067181610289565b600660008373ffffffffffffffffffffffffffffffffffffffff1673ffffffffffffffffffffffffffffffffffffffff16815260200190815260200160002081905550600454600560008373ffffffffffffffffffffffffffffffffffffffff1673ffffffffffffffffffffffffffffffffffffffff1681526020019081526020016000208190555060026000540361073f576040517f08c379a000000000000000000000000000000000000000000000000000000000815260040161073690611001565b60405180910390fd5b60026000819055508160008103610782576040517ff45911f000000000000000000000000000000000000000000000000000000000815260040160405180910390fd5b82600760008282546107949190610f4e565b9250508190555082600860003373ffffffffffffffffffffffffffffffffffffffff1673ffffffffffffffffffffffffffffffffffffffff16815260200190815260200160002060008282546107ea9190610f4e565b92505081905550823373ffffffffffffffffffffffffffffffffffffffff167f9e71bc8eea02a63969f509818f2dafb9254532904319f9dbda79b67bd34a5f3d60405160405180910390a36000600260009054906101000a900473ffffffffffffffffffffffffffffffffffffffff1673ffffffffffffffffffffffffffffffffffffffff166323b872dd3330876040518463ffffffff1660e01b8152600401610896939291906110be565b6020604051808303816000875af11580156108b5573d6000803e3d6000fd5b505050506040513d601f19601f820116820180604052508101906108d99190611091565b905080610912576040517f90b8ec1800000000000000000000000000000000000000000000000000000000815260040160405180910390fd5b505060016000819055505050565b60086020528060005260406000206000915090505481565b600260009054906101000a900473ffffffffffffffffffffffffffffffffffffffff1681565b33610967610c20565b6004819055504260038190555061097d81610289565b600660008373ffffffffffffffffffffffffffffffffffffffff1673ffffffffffffffffffffffffffffffffffffffff16815260200190815260200160002081905550600454600560008373ffffffffffffffffffffffffffffffffffffffff1673ffffffffffffffffffffffffffffffffffffffff16815260200190815260200160002081905550600260005403610a4b576040517f08c379a0000000000000000000000000000000000000000000000000000000008152600401610a4290611001565b60405180910390fd5b60026000819055506000600660003373ffffffffffffffffffffffffffffffffffffffff1673ffffffffffffffffffffffffffffffffffffffff1681526020019081526020016000205490506000600660003373ffffffffffffffffffffffffffffffffffffffff1673ffffffffffffffffffffffffffffffffffffffff16815260200190815260200160002081905550803373ffffffffffffffffffffffffffffffffffffffff167ffc30cddea38e2bf4d6ea7d3f9ed3b6ad7f176419f4963bd81318067a4aee73fe60405160405180910390a36000600160009054906101000a900473ffffffffffffffffffffffffffffffffffffffff1673ffffffffffffffffffffffffffffffffffffffff1663a9059cbb33846040518363ffffffff1660e01b8152600401610b7f929190611030565b6020604051808303816000875af1158015610b9e573d6000803e3d6000fd5b505050506040513d601f19601f82011682018060405250810190610bc29190611091565b905080610bfb576040517f90b8ec1800000000000000000000000000000000000000000000000000000000815260040160405180910390fd5b5050600160008190555050565b60066020528060005260406000206000915090505481565b60008060075403610c35576004549050610c7f565b600754670de0b6b3a7640000606460035442610c519190610e60565b610c5b9190610e94565b610c659190610e94565b610c6f9190610f1d565b600454610c7c9190610f4e565b90505b90565b60056020528060005260406000206000915090505481565b600080fd5b600073ffffffffffffffffffffffffffffffffffffffff82169050919050565b6000610cca82610c9f565b9050919050565b610cda81610cbf565b8114610ce557600080fd5b50565b600081359050610cf781610cd1565b92915050565b600060208284031215610d1357610d12610c9a565b5b6000610d2184828501610ce8565b91505092915050565b6000819050919050565b610d3d81610d2a565b82525050565b6000602082019050610d586000830184610d34565b92915050565b6000819050919050565b6000610d83610d7e610d7984610c9f565b610d5e565b610c9f565b9050919050565b6000610d9582610d68565b9050919050565b6000610da782610d8a565b9050919050565b610db781610d9c565b82525050565b6000602082019050610dd26000830184610dae565b92915050565b610de181610d2a565b8114610dec57600080fd5b50565b600081359050610dfe81610dd8565b92915050565b600060208284031215610e1a57610e19610c9a565b5b6000610e2884828501610def565b91505092915050565b7f4e487b7100000000000000000000000000000000000000000000000000000000600052601160045260246000fd5b6000610e6b82610d2a565b9150610e7683610d2a565b925082821015610e8957610e88610e31565b5b828203905092915050565b6000610e9f82610d2a565b9150610eaa83610d2a565b9250817fffffffffffffffffffffffffffffffffffffffffffffffffffffffffffffffff0483118215151615610ee357610ee2610e31565b5b828202905092915050565b7f4e487b7100000000000000000000000000000000000000000000000000000000600052601260045260246000fd5b6000610f2882610d2a565b9150610f3383610d2a565b925082610f4357610f42610eee565b5b828204905092915050565b6000610f5982610d2a565b9150610f6483610d2a565b9250827fffffffffffffffffffffffffffffffffffffffffffffffffffffffffffffffff03821115610f9957610f98610e31565b5b828201905092915050565b600082825260208201905092915050565b7f5265656e7472616e637947756172643a207265656e7472616e742063616c6c00600082015250565b6000610feb601f83610fa4565b9150610ff682610fb5565b602082019050919050565b6000602082019050818103600083015261101a81610fde565b9050919050565b61102a81610cbf565b82525050565b60006040820190506110456000830185611021565b6110526020830184610d34565b9392505050565b60008115159050919050565b61106e81611059565b811461107957600080fd5b50565b60008151905061108b81611065565b92915050565b6000602082840312156110a7576110a6610c9a565b5b60006110b58482850161107c565b91505092915050565b60006060820190506110d36000830186611021565b6110e06020830185611021565b6110ed6040830184610d34565b94935050505056fea2646970667358221220aa2cd74a0e52e4f41ea13820b313c8edb05f5aa28a2610158397f7e9a3ebe72064736f6c634300080f0033",
  "immutableReferences": {},
  "source": "// SPDX-License-Identifier: MIT\r\n// Inspired by https://solidity-by-example.org/defi/staking-rewards/\r\npragma solidity ^0.8.3;\r\n\r\nimport \"@openzeppelin/contracts/security/ReentrancyGuard.sol\";\r\nimport \"@openzeppelin/contracts/token/ERC20/IERC20.sol\";\r\n// import \"./contracts/s_stakingToken.sol\";\r\n// import \"Bankdapp/contracts/s_rewardToken.sol\";\r\n\r\nerror TransferFailed();\r\nerror NeedsMoreThanZero();\r\n\r\ncontract Stakingdapp is ReentrancyGuard {\r\n    IERC20 public s_rewardsToken;\r\n    IERC20 public s_stakingToken;\r\n\r\n    // This is the reward token per second\r\n    // Which will be multiplied by the tokens the user staked divided by the total\r\n    // This ensures a steady reward rate of the platform\r\n    // So the more users stake, the less for everyone who is staking.\r\n    uint256 public constant REWARD_RATE = 100;\r\n    uint256 public s_lastUpdateTime;\r\n    uint256 public s_rewardPerTokenStored;\r\n\r\n    mapping(address => uint256) public s_userRewardPerTokenPaid;\r\n    mapping(address => uint256) public s_rewards;\r\n\r\n    uint256 private s_totalSupply;\r\n    mapping(address => uint256) public s_balances;\r\n\r\n    event Staked(address indexed user, uint256 indexed amount);\r\n    event WithdrewStake(address indexed user, uint256 indexed amount);\r\n    event RewardsClaimed(address indexed user, uint256 indexed amount);\r\n\r\n    constructor(address stakingToken, address rewardsToken) {\r\n        s_stakingToken = IERC20(stakingToken);\r\n        s_rewardsToken = IERC20(rewardsToken);\r\n    }\r\n\r\n    /**\r\n     * @notice How much reward a token gets based on how long it's been in and during which \"snapshots\"\r\n     */\r\n    function rewardPerToken() public view returns (uint256) {\r\n        if (s_totalSupply == 0) {\r\n            return s_rewardPerTokenStored;\r\n        }\r\n        return\r\n            s_rewardPerTokenStored +\r\n            (((block.timestamp - s_lastUpdateTime) * REWARD_RATE * 1e18) / s_totalSupply);\r\n    }\r\n\r\n    /**\r\n     * @notice How much reward a user has earned\r\n     */\r\n    function earned(address account) public view returns (uint256) {\r\n        return\r\n            ((s_balances[account] * (rewardPerToken() - s_userRewardPerTokenPaid[account])) /\r\n                1e18) + s_rewards[account];\r\n    }\r\n\r\n    /**\r\n     * @notice Deposit tokens into this contract\r\n     * @param amount | How much to stake\r\n     */\r\n    function stake(uint256 amount)\r\n        external\r\n        updateReward(msg.sender)\r\n        nonReentrant\r\n        moreThanZero(amount)\r\n    {\r\n        s_totalSupply += amount;\r\n        s_balances[msg.sender] += amount;\r\n        emit Staked(msg.sender, amount);\r\n        bool success = s_stakingToken.transferFrom(msg.sender, address(this), amount);\r\n        if (!success) {\r\n            revert TransferFailed();\r\n        }\r\n    }\r\n\r\n    /**\r\n     * @notice Withdraw tokens from this contract\r\n     * @param amount | How much to withdraw\r\n     */\r\n    function withdraw(uint256 amount) external updateReward(msg.sender) nonReentrant {\r\n        s_totalSupply -= amount;\r\n        s_balances[msg.sender] -= amount;\r\n        emit WithdrewStake(msg.sender, amount);\r\n        bool success = s_stakingToken.transfer(msg.sender, amount);\r\n        if (!success) {\r\n            revert TransferFailed();\r\n        }\r\n    }\r\n\r\n    /**\r\n     * @notice User claims their tokens\r\n     */\r\n    function claimReward() external updateReward(msg.sender) nonReentrant {\r\n        uint256 reward = s_rewards[msg.sender];\r\n        s_rewards[msg.sender] = 0;\r\n        emit RewardsClaimed(msg.sender, reward);\r\n        bool success = s_rewardsToken.transfer(msg.sender, reward);\r\n        if (!success) {\r\n            revert TransferFailed();\r\n        }\r\n    }\r\n\r\n    /********************/\r\n    /* Modifiers Functions */\r\n    /********************/\r\n    modifier updateReward(address account) {\r\n        s_rewardPerTokenStored = rewardPerToken();\r\n        s_lastUpdateTime = block.timestamp;\r\n        s_rewards[account] = earned(account);\r\n        s_userRewardPerTokenPaid[account] = s_rewardPerTokenStored;\r\n        _;\r\n    }\r\n\r\n    modifier moreThanZero(uint256 amount) {\r\n        if (amount == 0) {\r\n            revert NeedsMoreThanZero();\r\n        }\r\n        _;\r\n    }\r\n\r\n    /********************/\r\n    /* Getter Functions */\r\n    /********************/\r\n    // Ideally, we'd have getter functions for all our s_ variables we want exposed, and set them all to private.\r\n    // But, for the purpose of this demo, we've left them public for simplicity.\r\n\r\n    function getStaked(address account) private view returns (uint256) {\r\n        return s_balances[account];\r\n    }\r\n}\r\n",
  "sourcePath": "C:\\Users\\HP\\Bankdapp\\contracts\\stakingdapp.sol",
  "compiler": {
    "name": "solc",
    "version": "0.8.15+commit.e14f2714.Emscripten.clang"
  },
  "schemaVersion": "3.4.8",
  "updatedAt": "2022-08-02T23:36:21.355Z",
  "devdoc": {
    "kind": "dev",
    "methods": {
      "stake(uint256)": {
        "params": {
          "amount": "| How much to stake"
        }
      },
      "withdraw(uint256)": {
        "params": {
          "amount": "| How much to withdraw"
        }
      }
    },
    "version": 1
  },
  "userdoc": {
    "kind": "user",
    "methods": {
      "claimReward()": {
        "notice": "User claims their tokens"
      },
      "earned(address)": {
        "notice": "How much reward a user has earned"
      },
      "rewardPerToken()": {
        "notice": "How much reward a token gets based on how long it's been in and during which \"snapshots\""
      },
      "stake(uint256)": {
        "notice": "Deposit tokens into this contract"
      },
      "withdraw(uint256)": {
        "notice": "Withdraw tokens from this contract"
      }
    },
    "version": 1
  }
}